{
	"contracts/fusdt.sol": {
		"FlashUSDT": {
			"abi": [
				{
					"inputs": [
						{
							"internalType": "address",
							"name": "user",
							"type": "address"
						}
					],
					"name": "balanceOf",
					"outputs": [
						{
							"internalType": "uint256",
							"name": "",
							"type": "uint256"
						}
					],
					"stateMutability": "view",
					"type": "function"
				},
				{
					"inputs": [
						{
							"internalType": "address",
							"name": "user",
							"type": "address"
						},
						{
							"internalType": "uint256",
							"name": "amount",
							"type": "uint256"
						}
					],
					"name": "mintFlashUSDT",
					"outputs": [],
					"stateMutability": "nonpayable",
					"type": "function"
				}
			],
			"devdoc": {
				"kind": "dev",
				"methods": {},
				"version": 1
			},
			"evm": {
				"assembly": "    /* \"contracts/fusdt.sol\":57:408  contract FlashUSDT {... */\n  mstore(0x40, 0x80)\n  callvalue\n  dup1\n  iszero\n  tag_1\n  jumpi\n  0x00\n  dup1\n  revert\ntag_1:\n  pop\n  dataSize(sub_0)\n  dup1\n  dataOffset(sub_0)\n  0x00\n  codecopy\n  0x00\n  return\nstop\n\nsub_0: assembly {\n        /* \"contracts/fusdt.sol\":57:408  contract FlashUSDT {... */\n      mstore(0x40, 0x80)\n      callvalue\n      dup1\n      iszero\n      tag_1\n      jumpi\n      0x00\n      dup1\n      revert\n    tag_1:\n      pop\n      jumpi(tag_2, lt(calldatasize, 0x04))\n      shr(0xe0, calldataload(0x00))\n      dup1\n      0x462a55ac\n      eq\n      tag_3\n      jumpi\n      dup1\n      0x70a08231\n      eq\n      tag_4\n      jumpi\n    tag_2:\n      0x00\n      dup1\n      revert\n        /* \"contracts/fusdt.sol\":134:266  function mintFlashUSDT(address user, uint256 amount) external {... */\n    tag_3:\n      tag_5\n      0x04\n      dup1\n      calldatasize\n      sub\n      dup2\n      add\n      swap1\n      tag_6\n      swap2\n      swap1\n      tag_7\n      jump\t// in\n    tag_6:\n      tag_8\n      jump\t// in\n    tag_5:\n      stop\n        /* \"contracts/fusdt.sol\":272:406  function balanceOf(address user) external view returns (uint256) {... */\n    tag_4:\n      tag_9\n      0x04\n      dup1\n      calldatasize\n      sub\n      dup2\n      add\n      swap1\n      tag_10\n      swap2\n      swap1\n      tag_11\n      jump\t// in\n    tag_10:\n      tag_12\n      jump\t// in\n    tag_9:\n      mload(0x40)\n      tag_13\n      swap2\n      swap1\n      tag_14\n      jump\t// in\n    tag_13:\n      mload(0x40)\n      dup1\n      swap2\n      sub\n      swap1\n      return\n        /* \"contracts/fusdt.sol\":134:266  function mintFlashUSDT(address user, uint256 amount) external {... */\n    tag_8:\n        /* \"contracts/fusdt.sol\":225:231  amount */\n      dup1\n        /* \"contracts/fusdt.sol\":206:215  _balances */\n      0x00\n        /* \"contracts/fusdt.sol\":206:221  _balances[user] */\n      dup1\n        /* \"contracts/fusdt.sol\":216:220  user */\n      dup5\n        /* \"contracts/fusdt.sol\":206:221  _balances[user] */\n      0xffffffffffffffffffffffffffffffffffffffff\n      and\n      0xffffffffffffffffffffffffffffffffffffffff\n      and\n      dup2\n      mstore\n      0x20\n      add\n      swap1\n      dup2\n      mstore\n      0x20\n      add\n      0x00\n      keccak256\n      0x00\n        /* \"contracts/fusdt.sol\":206:231  _balances[user] += amount */\n      dup3\n      dup3\n      sload\n      tag_16\n      swap2\n      swap1\n      tag_17\n      jump\t// in\n    tag_16:\n      swap3\n      pop\n      pop\n      dup2\n      swap1\n      sstore\n      pop\n        /* \"contracts/fusdt.sol\":134:266  function mintFlashUSDT(address user, uint256 amount) external {... */\n      pop\n      pop\n      jump\t// out\n        /* \"contracts/fusdt.sol\":272:406  function balanceOf(address user) external view returns (uint256) {... */\n    tag_12:\n        /* \"contracts/fusdt.sol\":328:335  uint256 */\n      0x00\n        /* \"contracts/fusdt.sol\":354:363  _balances */\n      dup1\n        /* \"contracts/fusdt.sol\":354:369  _balances[user] */\n      0x00\n        /* \"contracts/fusdt.sol\":364:368  user */\n      dup4\n        /* \"contracts/fusdt.sol\":354:369  _balances[user] */\n      0xffffffffffffffffffffffffffffffffffffffff\n      and\n      0xffffffffffffffffffffffffffffffffffffffff\n      and\n      dup2\n      mstore\n      0x20\n      add\n      swap1\n      dup2\n      mstore\n      0x20\n      add\n      0x00\n      keccak256\n      sload\n        /* \"contracts/fusdt.sol\":347:369  return _balances[user] */\n      swap1\n      pop\n        /* \"contracts/fusdt.sol\":272:406  function balanceOf(address user) external view returns (uint256) {... */\n      swap2\n      swap1\n      pop\n      jump\t// out\n        /* \"#utility.yul\":7:146   */\n    tag_20:\n      0x00\n        /* \"#utility.yul\":91:97   */\n      dup2\n        /* \"#utility.yul\":78:98   */\n      calldataload\n        /* \"#utility.yul\":69:98   */\n      swap1\n      pop\n        /* \"#utility.yul\":107:140   */\n      tag_22\n        /* \"#utility.yul\":134:139   */\n      dup2\n        /* \"#utility.yul\":107:140   */\n      tag_23\n      jump\t// in\n    tag_22:\n        /* \"#utility.yul\":59:146   */\n      swap3\n      swap2\n      pop\n      pop\n      jump\t// out\n        /* \"#utility.yul\":152:291   */\n    tag_24:\n      0x00\n        /* \"#utility.yul\":236:242   */\n      dup2\n        /* \"#utility.yul\":223:243   */\n      calldataload\n        /* \"#utility.yul\":214:243   */\n      swap1\n      pop\n        /* \"#utility.yul\":252:285   */\n      tag_26\n        /* \"#utility.yul\":279:284   */\n      dup2\n        /* \"#utility.yul\":252:285   */\n      tag_27\n      jump\t// in\n    tag_26:\n        /* \"#utility.yul\":204:291   */\n      swap3\n      swap2\n      pop\n      pop\n      jump\t// out\n        /* \"#utility.yul\":297:559   */\n    tag_11:\n      0x00\n        /* \"#utility.yul\":405:407   */\n      0x20\n        /* \"#utility.yul\":393:402   */\n      dup3\n        /* \"#utility.yul\":384:391   */\n      dup5\n        /* \"#utility.yul\":380:403   */\n      sub\n        /* \"#utility.yul\":376:408   */\n      slt\n        /* \"#utility.yul\":373:375   */\n      iszero\n      tag_29\n      jumpi\n        /* \"#utility.yul\":421:422   */\n      0x00\n        /* \"#utility.yul\":418:419   */\n      dup1\n        /* \"#utility.yul\":411:423   */\n      revert\n        /* \"#utility.yul\":373:375   */\n    tag_29:\n        /* \"#utility.yul\":464:465   */\n      0x00\n        /* \"#utility.yul\":489:542   */\n      tag_30\n        /* \"#utility.yul\":534:541   */\n      dup5\n        /* \"#utility.yul\":525:531   */\n      dup3\n        /* \"#utility.yul\":514:523   */\n      dup6\n        /* \"#utility.yul\":510:532   */\n      add\n        /* \"#utility.yul\":489:542   */\n      tag_20\n      jump\t// in\n    tag_30:\n        /* \"#utility.yul\":479:542   */\n      swap2\n      pop\n        /* \"#utility.yul\":435:552   */\n      pop\n        /* \"#utility.yul\":363:559   */\n      swap3\n      swap2\n      pop\n      pop\n      jump\t// out\n        /* \"#utility.yul\":565:972   */\n    tag_7:\n      0x00\n      dup1\n        /* \"#utility.yul\":690:692   */\n      0x40\n        /* \"#utility.yul\":678:687   */\n      dup4\n        /* \"#utility.yul\":669:676   */\n      dup6\n        /* \"#utility.yul\":665:688   */\n      sub\n        /* \"#utility.yul\":661:693   */\n      slt\n        /* \"#utility.yul\":658:660   */\n      iszero\n      tag_32\n      jumpi\n        /* \"#utility.yul\":706:707   */\n      0x00\n        /* \"#utility.yul\":703:704   */\n      dup1\n        /* \"#utility.yul\":696:708   */\n      revert\n        /* \"#utility.yul\":658:660   */\n    tag_32:\n        /* \"#utility.yul\":749:750   */\n      0x00\n        /* \"#utility.yul\":774:827   */\n      tag_33\n        /* \"#utility.yul\":819:826   */\n      dup6\n        /* \"#utility.yul\":810:816   */\n      dup3\n        /* \"#utility.yul\":799:808   */\n      dup7\n        /* \"#utility.yul\":795:817   */\n      add\n        /* \"#utility.yul\":774:827   */\n      tag_20\n      jump\t// in\n    tag_33:\n        /* \"#utility.yul\":764:827   */\n      swap3\n      pop\n        /* \"#utility.yul\":720:837   */\n      pop\n        /* \"#utility.yul\":876:878   */\n      0x20\n        /* \"#utility.yul\":902:955   */\n      tag_34\n        /* \"#utility.yul\":947:954   */\n      dup6\n        /* \"#utility.yul\":938:944   */\n      dup3\n        /* \"#utility.yul\":927:936   */\n      dup7\n        /* \"#utility.yul\":923:945   */\n      add\n        /* \"#utility.yul\":902:955   */\n      tag_24\n      jump\t// in\n    tag_34:\n        /* \"#utility.yul\":892:955   */\n      swap2\n      pop\n        /* \"#utility.yul\":847:965   */\n      pop\n        /* \"#utility.yul\":648:972   */\n      swap3\n      pop\n      swap3\n      swap1\n      pop\n      jump\t// out\n        /* \"#utility.yul\":978:1096   */\n    tag_35:\n        /* \"#utility.yul\":1065:1089   */\n      tag_37\n        /* \"#utility.yul\":1083:1088   */\n      dup2\n        /* \"#utility.yul\":1065:1089   */\n      tag_38\n      jump\t// in\n    tag_37:\n        /* \"#utility.yul\":1060:1063   */\n      dup3\n        /* \"#utility.yul\":1053:1090   */\n      mstore\n        /* \"#utility.yul\":1043:1096   */\n      pop\n      pop\n      jump\t// out\n        /* \"#utility.yul\":1102:1324   */\n    tag_14:\n      0x00\n        /* \"#utility.yul\":1233:1235   */\n      0x20\n        /* \"#utility.yul\":1222:1231   */\n      dup3\n        /* \"#utility.yul\":1218:1236   */\n      add\n        /* \"#utility.yul\":1210:1236   */\n      swap1\n      pop\n        /* \"#utility.yul\":1246:1317   */\n      tag_40\n        /* \"#utility.yul\":1314:1315   */\n      0x00\n        /* \"#utility.yul\":1303:1312   */\n      dup4\n        /* \"#utility.yul\":1299:1316   */\n      add\n        /* \"#utility.yul\":1290:1296   */\n      dup5\n        /* \"#utility.yul\":1246:1317   */\n      tag_35\n      jump\t// in\n    tag_40:\n        /* \"#utility.yul\":1200:1324   */\n      swap3\n      swap2\n      pop\n      pop\n      jump\t// out\n        /* \"#utility.yul\":1330:1635   */\n    tag_17:\n      0x00\n        /* \"#utility.yul\":1389:1409   */\n      tag_42\n        /* \"#utility.yul\":1407:1408   */\n      dup3\n        /* \"#utility.yul\":1389:1409   */\n      tag_38\n      jump\t// in\n    tag_42:\n        /* \"#utility.yul\":1384:1409   */\n      swap2\n      pop\n        /* \"#utility.yul\":1423:1443   */\n      tag_43\n        /* \"#utility.yul\":1441:1442   */\n      dup4\n        /* \"#utility.yul\":1423:1443   */\n      tag_38\n      jump\t// in\n    tag_43:\n        /* \"#utility.yul\":1418:1443   */\n      swap3\n      pop\n        /* \"#utility.yul\":1577:1578   */\n      dup3\n        /* \"#utility.yul\":1509:1575   */\n      0xffffffffffffffffffffffffffffffffffffffffffffffffffffffffffffffff\n        /* \"#utility.yul\":1505:1579   */\n      sub\n        /* \"#utility.yul\":1502:1503   */\n      dup3\n        /* \"#utility.yul\":1499:1580   */\n      gt\n        /* \"#utility.yul\":1496:1498   */\n      iszero\n      tag_44\n      jumpi\n        /* \"#utility.yul\":1583:1601   */\n      tag_45\n      tag_46\n      jump\t// in\n    tag_45:\n        /* \"#utility.yul\":1496:1498   */\n    tag_44:\n        /* \"#utility.yul\":1627:1628   */\n      dup3\n        /* \"#utility.yul\":1624:1625   */\n      dup3\n        /* \"#utility.yul\":1620:1629   */\n      add\n        /* \"#utility.yul\":1613:1629   */\n      swap1\n      pop\n        /* \"#utility.yul\":1374:1635   */\n      swap3\n      swap2\n      pop\n      pop\n      jump\t// out\n        /* \"#utility.yul\":1641:1737   */\n    tag_47:\n      0x00\n        /* \"#utility.yul\":1707:1731   */\n      tag_49\n        /* \"#utility.yul\":1725:1730   */\n      dup3\n        /* \"#utility.yul\":1707:1731   */\n      tag_50\n      jump\t// in\n    tag_49:\n        /* \"#utility.yul\":1696:1731   */\n      swap1\n      pop\n        /* \"#utility.yul\":1686:1737   */\n      swap2\n      swap1\n      pop\n      jump\t// out\n        /* \"#utility.yul\":1743:1869   */\n    tag_50:\n      0x00\n        /* \"#utility.yul\":1820:1862   */\n      0xffffffffffffffffffffffffffffffffffffffff\n        /* \"#utility.yul\":1813:1818   */\n      dup3\n        /* \"#utility.yul\":1809:1863   */\n      and\n        /* \"#utility.yul\":1798:1863   */\n      swap1\n      pop\n        /* \"#utility.yul\":1788:1869   */\n      swap2\n      swap1\n      pop\n      jump\t// out\n        /* \"#utility.yul\":1875:1952   */\n    tag_38:\n      0x00\n        /* \"#utility.yul\":1941:1946   */\n      dup2\n        /* \"#utility.yul\":1930:1946   */\n      swap1\n      pop\n        /* \"#utility.yul\":1920:1952   */\n      swap2\n      swap1\n      pop\n      jump\t// out\n        /* \"#utility.yul\":1958:2138   */\n    tag_46:\n        /* \"#utility.yul\":2006:2083   */\n      0x4e487b7100000000000000000000000000000000000000000000000000000000\n        /* \"#utility.yul\":2003:2004   */\n      0x00\n        /* \"#utility.yul\":1996:2084   */\n      mstore\n        /* \"#utility.yul\":2103:2107   */\n      0x11\n        /* \"#utility.yul\":2100:2101   */\n      0x04\n        /* \"#utility.yul\":2093:2108   */\n      mstore\n        /* \"#utility.yul\":2127:2131   */\n      0x24\n        /* \"#utility.yul\":2124:2125   */\n      0x00\n        /* \"#utility.yul\":2117:2132   */\n      revert\n        /* \"#utility.yul\":2144:2266   */\n    tag_23:\n        /* \"#utility.yul\":2217:2241   */\n      tag_55\n        /* \"#utility.yul\":2235:2240   */\n      dup2\n        /* \"#utility.yul\":2217:2241   */\n      tag_47\n      jump\t// in\n    tag_55:\n        /* \"#utility.yul\":2210:2215   */\n      dup2\n        /* \"#utility.yul\":2207:2242   */\n      eq\n        /* \"#utility.yul\":2197:2199   */\n      tag_56\n      jumpi\n        /* \"#utility.yul\":2256:2257   */\n      0x00\n        /* \"#utility.yul\":2253:2254   */\n      dup1\n        /* \"#utility.yul\":2246:2258   */\n      revert\n        /* \"#utility.yul\":2197:2199   */\n    tag_56:\n        /* \"#utility.yul\":2187:2266   */\n      pop\n      jump\t// out\n        /* \"#utility.yul\":2272:2394   */\n    tag_27:\n        /* \"#utility.yul\":2345:2369   */\n      tag_58\n        /* \"#utility.yul\":2363:2368   */\n      dup2\n        /* \"#utility.yul\":2345:2369   */\n      tag_38\n      jump\t// in\n    tag_58:\n        /* \"#utility.yul\":2338:2343   */\n      dup2\n        /* \"#utility.yul\":2335:2370   */\n      eq\n        /* \"#utility.yul\":2325:2327   */\n      tag_59\n      jumpi\n        /* \"#utility.yul\":2384:2385   */\n      0x00\n        /* \"#utility.yul\":2381:2382   */\n      dup1\n        /* \"#utility.yul\":2374:2386   */\n      revert\n        /* \"#utility.yul\":2325:2327   */\n    tag_59:\n        /* \"#utility.yul\":2315:2394   */\n      pop\n      jump\t// out\n\n    auxdata: 0xa2646970667358221220e8b623a0745868044a2b1fd867df99925076bd1e00a8944015fd0b83f6e04db564736f6c63430008000033\n}\n",
				"bytecode": {
					"linkReferences": {},
					"object": "608060405234801561001057600080fd5b50610306806100206000396000f3fe608060405234801561001057600080fd5b50600436106100365760003560e01c8063462a55ac1461003b57806370a0823114610057575b600080fd5b6100556004803603810190610050919061017b565b610087565b005b610071600480360381019061006c9190610152565b6100e0565b60405161007e91906101c6565b60405180910390f35b806000808473ffffffffffffffffffffffffffffffffffffffff1673ffffffffffffffffffffffffffffffffffffffff16815260200190815260200160002060008282546100d591906101e1565b925050819055505050565b60008060008373ffffffffffffffffffffffffffffffffffffffff1673ffffffffffffffffffffffffffffffffffffffff168152602001908152602001600020549050919050565b600081359050610137816102a2565b92915050565b60008135905061014c816102b9565b92915050565b60006020828403121561016457600080fd5b600061017284828501610128565b91505092915050565b6000806040838503121561018e57600080fd5b600061019c85828601610128565b92505060206101ad8582860161013d565b9150509250929050565b6101c081610269565b82525050565b60006020820190506101db60008301846101b7565b92915050565b60006101ec82610269565b91506101f783610269565b9250827fffffffffffffffffffffffffffffffffffffffffffffffffffffffffffffffff0382111561022c5761022b610273565b5b828201905092915050565b600061024282610249565b9050919050565b600073ffffffffffffffffffffffffffffffffffffffff82169050919050565b6000819050919050565b7f4e487b7100000000000000000000000000000000000000000000000000000000600052601160045260246000fd5b6102ab81610237565b81146102b657600080fd5b50565b6102c281610269565b81146102cd57600080fd5b5056fea2646970667358221220e8b623a0745868044a2b1fd867df99925076bd1e00a8944015fd0b83f6e04db564736f6c63430008000033",
					"opcodes": "PUSH1 0x80 PUSH1 0x40 MSTORE CALLVALUE DUP1 ISZERO PUSH2 0x10 JUMPI PUSH1 0x0 DUP1 REVERT JUMPDEST POP PUSH2 0x306 DUP1 PUSH2 0x20 PUSH1 0x0 CODECOPY PUSH1 0x0 RETURN INVALID PUSH1 0x80 PUSH1 0x40 MSTORE CALLVALUE DUP1 ISZERO PUSH2 0x10 JUMPI PUSH1 0x0 DUP1 REVERT JUMPDEST POP PUSH1 0x4 CALLDATASIZE LT PUSH2 0x36 JUMPI PUSH1 0x0 CALLDATALOAD PUSH1 0xE0 SHR DUP1 PUSH4 0x462A55AC EQ PUSH2 0x3B JUMPI DUP1 PUSH4 0x70A08231 EQ PUSH2 0x57 JUMPI JUMPDEST PUSH1 0x0 DUP1 REVERT JUMPDEST PUSH2 0x55 PUSH1 0x4 DUP1 CALLDATASIZE SUB DUP2 ADD SWAP1 PUSH2 0x50 SWAP2 SWAP1 PUSH2 0x17B JUMP JUMPDEST PUSH2 0x87 JUMP JUMPDEST STOP JUMPDEST PUSH2 0x71 PUSH1 0x4 DUP1 CALLDATASIZE SUB DUP2 ADD SWAP1 PUSH2 0x6C SWAP2 SWAP1 PUSH2 0x152 JUMP JUMPDEST PUSH2 0xE0 JUMP JUMPDEST PUSH1 0x40 MLOAD PUSH2 0x7E SWAP2 SWAP1 PUSH2 0x1C6 JUMP JUMPDEST PUSH1 0x40 MLOAD DUP1 SWAP2 SUB SWAP1 RETURN JUMPDEST DUP1 PUSH1 0x0 DUP1 DUP5 PUSH20 0xFFFFFFFFFFFFFFFFFFFFFFFFFFFFFFFFFFFFFFFF AND PUSH20 0xFFFFFFFFFFFFFFFFFFFFFFFFFFFFFFFFFFFFFFFF AND DUP2 MSTORE PUSH1 0x20 ADD SWAP1 DUP2 MSTORE PUSH1 0x20 ADD PUSH1 0x0 KECCAK256 PUSH1 0x0 DUP3 DUP3 SLOAD PUSH2 0xD5 SWAP2 SWAP1 PUSH2 0x1E1 JUMP JUMPDEST SWAP3 POP POP DUP2 SWAP1 SSTORE POP POP POP JUMP JUMPDEST PUSH1 0x0 DUP1 PUSH1 0x0 DUP4 PUSH20 0xFFFFFFFFFFFFFFFFFFFFFFFFFFFFFFFFFFFFFFFF AND PUSH20 0xFFFFFFFFFFFFFFFFFFFFFFFFFFFFFFFFFFFFFFFF AND DUP2 MSTORE PUSH1 0x20 ADD SWAP1 DUP2 MSTORE PUSH1 0x20 ADD PUSH1 0x0 KECCAK256 SLOAD SWAP1 POP SWAP2 SWAP1 POP JUMP JUMPDEST PUSH1 0x0 DUP2 CALLDATALOAD SWAP1 POP PUSH2 0x137 DUP2 PUSH2 0x2A2 JUMP JUMPDEST SWAP3 SWAP2 POP POP JUMP JUMPDEST PUSH1 0x0 DUP2 CALLDATALOAD SWAP1 POP PUSH2 0x14C DUP2 PUSH2 0x2B9 JUMP JUMPDEST SWAP3 SWAP2 POP POP JUMP JUMPDEST PUSH1 0x0 PUSH1 0x20 DUP3 DUP5 SUB SLT ISZERO PUSH2 0x164 JUMPI PUSH1 0x0 DUP1 REVERT JUMPDEST PUSH1 0x0 PUSH2 0x172 DUP5 DUP3 DUP6 ADD PUSH2 0x128 JUMP JUMPDEST SWAP2 POP POP SWAP3 SWAP2 POP POP JUMP JUMPDEST PUSH1 0x0 DUP1 PUSH1 0x40 DUP4 DUP6 SUB SLT ISZERO PUSH2 0x18E JUMPI PUSH1 0x0 DUP1 REVERT JUMPDEST PUSH1 0x0 PUSH2 0x19C DUP6 DUP3 DUP7 ADD PUSH2 0x128 JUMP JUMPDEST SWAP3 POP POP PUSH1 0x20 PUSH2 0x1AD DUP6 DUP3 DUP7 ADD PUSH2 0x13D JUMP JUMPDEST SWAP2 POP POP SWAP3 POP SWAP3 SWAP1 POP JUMP JUMPDEST PUSH2 0x1C0 DUP2 PUSH2 0x269 JUMP JUMPDEST DUP3 MSTORE POP POP JUMP JUMPDEST PUSH1 0x0 PUSH1 0x20 DUP3 ADD SWAP1 POP PUSH2 0x1DB PUSH1 0x0 DUP4 ADD DUP5 PUSH2 0x1B7 JUMP JUMPDEST SWAP3 SWAP2 POP POP JUMP JUMPDEST PUSH1 0x0 PUSH2 0x1EC DUP3 PUSH2 0x269 JUMP JUMPDEST SWAP2 POP PUSH2 0x1F7 DUP4 PUSH2 0x269 JUMP JUMPDEST SWAP3 POP DUP3 PUSH32 0xFFFFFFFFFFFFFFFFFFFFFFFFFFFFFFFFFFFFFFFFFFFFFFFFFFFFFFFFFFFFFFFF SUB DUP3 GT ISZERO PUSH2 0x22C JUMPI PUSH2 0x22B PUSH2 0x273 JUMP JUMPDEST JUMPDEST DUP3 DUP3 ADD SWAP1 POP SWAP3 SWAP2 POP POP JUMP JUMPDEST PUSH1 0x0 PUSH2 0x242 DUP3 PUSH2 0x249 JUMP JUMPDEST SWAP1 POP SWAP2 SWAP1 POP JUMP JUMPDEST PUSH1 0x0 PUSH20 0xFFFFFFFFFFFFFFFFFFFFFFFFFFFFFFFFFFFFFFFF DUP3 AND SWAP1 POP SWAP2 SWAP1 POP JUMP JUMPDEST PUSH1 0x0 DUP2 SWAP1 POP SWAP2 SWAP1 POP JUMP JUMPDEST PUSH32 0x4E487B7100000000000000000000000000000000000000000000000000000000 PUSH1 0x0 MSTORE PUSH1 0x11 PUSH1 0x4 MSTORE PUSH1 0x24 PUSH1 0x0 REVERT JUMPDEST PUSH2 0x2AB DUP2 PUSH2 0x237 JUMP JUMPDEST DUP2 EQ PUSH2 0x2B6 JUMPI PUSH1 0x0 DUP1 REVERT JUMPDEST POP JUMP JUMPDEST PUSH2 0x2C2 DUP2 PUSH2 0x269 JUMP JUMPDEST DUP2 EQ PUSH2 0x2CD JUMPI PUSH1 0x0 DUP1 REVERT JUMPDEST POP JUMP INVALID LOG2 PUSH5 0x6970667358 0x22 SLT KECCAK256 0xE8 0xB6 0x23 LOG0 PUSH21 0x5868044A2B1FD867DF99925076BD1E00A8944015FD SIGNEXTEND DUP4 0xF6 0xE0 0x4D 0xB5 PUSH5 0x736F6C6343 STOP ADDMOD STOP STOP CALLER "
				},
				"gasEstimates": {
					"creation": {
						"codeDepositCost": "154800",
						"executionCost": "202",
						"totalCost": "155002"
					},
					"external": {
						"balanceOf(address)": "1541",
						"mintFlashUSDT(address,uint256)": "infinite"
					}
				},
				"methodIdentifiers": {
					"balanceOf(address)": "70a08231",
					"mintFlashUSDT(address,uint256)": "462a55ac"
				}
			},
			"storageLayout": {
				"storage": [
					{
						"astId": 5,
						"contract": "contracts/fusdt.sol:FlashUSDT",
						"label": "_balances",
						"offset": 0,
						"slot": "0",
						"type": "t_mapping(t_address,t_uint256)"
					}
				],
				"types": {
					"t_address": {
						"encoding": "inplace",
						"label": "address",
						"numberOfBytes": "20"
					},
					"t_mapping(t_address,t_uint256)": {
						"encoding": "mapping",
						"key": "t_address",
						"label": "mapping(address => uint256)",
						"numberOfBytes": "32",
						"value": "t_uint256"
					},
					"t_uint256": {
						"encoding": "inplace",
						"label": "uint256",
						"numberOfBytes": "32"
					}
				}
			},
			"userdoc": {
				"kind": "user",
				"methods": {},
				"version": 1
			}
		}
	}
}