{
  "abi": [
    {
      "type": "constructor",
      "inputs": [
        {
          "name": "_creatorTokenAddress",
          "type": "address",
          "internalType": "address"
        }
      ],
      "stateMutability": "nonpayable"
    },
    {
      "type": "function",
      "name": "approve",
      "inputs": [
        {
          "name": "to",
          "type": "address",
          "internalType": "address"
        },
        {
          "name": "tokenId",
          "type": "uint256",
          "internalType": "uint256"
        }
      ],
      "outputs": [],
      "stateMutability": "nonpayable"
    },
    {
      "type": "function",
      "name": "balanceOf",
      "inputs": [
        {
          "name": "owner",
          "type": "address",
          "internalType": "address"
        }
      ],
      "outputs": [
        {
          "name": "",
          "type": "uint256",
          "internalType": "uint256"
        }
      ],
      "stateMutability": "view"
    },
    {
      "type": "function",
      "name": "creatorRewardAmount",
      "inputs": [],
      "outputs": [
        {
          "name": "",
          "type": "uint256",
          "internalType": "uint256"
        }
      ],
      "stateMutability": "view"
    },
    {
      "type": "function",
      "name": "creatorToken",
      "inputs": [],
      "outputs": [
        {
          "name": "",
          "type": "address",
          "internalType": "contract CreatorToken"
        }
      ],
      "stateMutability": "view"
    },
    {
      "type": "function",
      "name": "getApproved",
      "inputs": [
        {
          "name": "tokenId",
          "type": "uint256",
          "internalType": "uint256"
        }
      ],
      "outputs": [
        {
          "name": "",
          "type": "address",
          "internalType": "address"
        }
      ],
      "stateMutability": "view"
    },
    {
      "type": "function",
      "name": "getCreator",
      "inputs": [
        {
          "name": "_tokenId",
          "type": "uint256",
          "internalType": "uint256"
        }
      ],
      "outputs": [
        {
          "name": "",
          "type": "address",
          "internalType": "address"
        }
      ],
      "stateMutability": "view"
    },
    {
      "type": "function",
      "name": "isApprovedForAll",
      "inputs": [
        {
          "name": "owner",
          "type": "address",
          "internalType": "address"
        },
        {
          "name": "operator",
          "type": "address",
          "internalType": "address"
        }
      ],
      "outputs": [
        {
          "name": "",
          "type": "bool",
          "internalType": "bool"
        }
      ],
      "stateMutability": "view"
    },
    {
      "type": "function",
      "name": "mintNFT",
      "inputs": [
        {
          "name": "_tokenURI",
          "type": "string",
          "internalType": "string"
        }
      ],
      "outputs": [
        {
          "name": "",
          "type": "uint256",
          "internalType": "uint256"
        }
      ],
      "stateMutability": "nonpayable"
    },
    {
      "type": "function",
      "name": "name",
      "inputs": [],
      "outputs": [
        {
          "name": "",
          "type": "string",
          "internalType": "string"
        }
      ],
      "stateMutability": "view"
    },
    {
      "type": "function",
      "name": "owner",
      "inputs": [],
      "outputs": [
        {
          "name": "",
          "type": "address",
          "internalType": "address"
        }
      ],
      "stateMutability": "view"
    },
    {
      "type": "function",
      "name": "ownerOf",
      "inputs": [
        {
          "name": "tokenId",
          "type": "uint256",
          "internalType": "uint256"
        }
      ],
      "outputs": [
        {
          "name": "",
          "type": "address",
          "internalType": "address"
        }
      ],
      "stateMutability": "view"
    },
    {
      "type": "function",
      "name": "renounceOwnership",
      "inputs": [],
      "outputs": [],
      "stateMutability": "nonpayable"
    },
    {
      "type": "function",
      "name": "safeTransferFrom",
      "inputs": [
        {
          "name": "from",
          "type": "address",
          "internalType": "address"
        },
        {
          "name": "to",
          "type": "address",
          "internalType": "address"
        },
        {
          "name": "tokenId",
          "type": "uint256",
          "internalType": "uint256"
        }
      ],
      "outputs": [],
      "stateMutability": "nonpayable"
    },
    {
      "type": "function",
      "name": "safeTransferFrom",
      "inputs": [
        {
          "name": "from",
          "type": "address",
          "internalType": "address"
        },
        {
          "name": "to",
          "type": "address",
          "internalType": "address"
        },
        {
          "name": "tokenId",
          "type": "uint256",
          "internalType": "uint256"
        },
        {
          "name": "data",
          "type": "bytes",
          "internalType": "bytes"
        }
      ],
      "outputs": [],
      "stateMutability": "nonpayable"
    },
    {
      "type": "function",
      "name": "setApprovalForAll",
      "inputs": [
        {
          "name": "operator",
          "type": "address",
          "internalType": "address"
        },
        {
          "name": "approved",
          "type": "bool",
          "internalType": "bool"
        }
      ],
      "outputs": [],
      "stateMutability": "nonpayable"
    },
    {
      "type": "function",
      "name": "setCreatorRewardAmount",
      "inputs": [
        {
          "name": "_amount",
          "type": "uint256",
          "internalType": "uint256"
        }
      ],
      "outputs": [],
      "stateMutability": "nonpayable"
    },
    {
      "type": "function",
      "name": "setCreatorToken",
      "inputs": [
        {
          "name": "_creatorTokenAddress",
          "type": "address",
          "internalType": "address"
        }
      ],
      "outputs": [],
      "stateMutability": "nonpayable"
    },
    {
      "type": "function",
      "name": "supportsInterface",
      "inputs": [
        {
          "name": "interfaceId",
          "type": "bytes4",
          "internalType": "bytes4"
        }
      ],
      "outputs": [
        {
          "name": "",
          "type": "bool",
          "internalType": "bool"
        }
      ],
      "stateMutability": "view"
    },
    {
      "type": "function",
      "name": "symbol",
      "inputs": [],
      "outputs": [
        {
          "name": "",
          "type": "string",
          "internalType": "string"
        }
      ],
      "stateMutability": "view"
    },
    {
      "type": "function",
      "name": "tokenCreators",
      "inputs": [
        {
          "name": "",
          "type": "uint256",
          "internalType": "uint256"
        }
      ],
      "outputs": [
        {
          "name": "",
          "type": "address",
          "internalType": "address"
        }
      ],
      "stateMutability": "view"
    },
    {
      "type": "function",
      "name": "tokenURI",
      "inputs": [
        {
          "name": "tokenId",
          "type": "uint256",
          "internalType": "uint256"
        }
      ],
      "outputs": [
        {
          "name": "",
          "type": "string",
          "internalType": "string"
        }
      ],
      "stateMutability": "view"
    },
    {
      "type": "function",
      "name": "totalSupply",
      "inputs": [],
      "outputs": [
        {
          "name": "",
          "type": "uint256",
          "internalType": "uint256"
        }
      ],
      "stateMutability": "view"
    },
    {
      "type": "function",
      "name": "transferFrom",
      "inputs": [
        {
          "name": "from",
          "type": "address",
          "internalType": "address"
        },
        {
          "name": "to",
          "type": "address",
          "internalType": "address"
        },
        {
          "name": "tokenId",
          "type": "uint256",
          "internalType": "uint256"
        }
      ],
      "outputs": [],
      "stateMutability": "nonpayable"
    },
    {
      "type": "function",
      "name": "transferOwnership",
      "inputs": [
        {
          "name": "newOwner",
          "type": "address",
          "internalType": "address"
        }
      ],
      "outputs": [],
      "stateMutability": "nonpayable"
    },
    {
      "type": "event",
      "name": "Approval",
      "inputs": [
        {
          "name": "owner",
          "type": "address",
          "indexed": true,
          "internalType": "address"
        },
        {
          "name": "approved",
          "type": "address",
          "indexed": true,
          "internalType": "address"
        },
        {
          "name": "tokenId",
          "type": "uint256",
          "indexed": true,
          "internalType": "uint256"
        }
      ],
      "anonymous": false
    },
    {
      "type": "event",
      "name": "ApprovalForAll",
      "inputs": [
        {
          "name": "owner",
          "type": "address",
          "indexed": true,
          "internalType": "address"
        },
        {
          "name": "operator",
          "type": "address",
          "indexed": true,
          "internalType": "address"
        },
        {
          "name": "approved",
          "type": "bool",
          "indexed": false,
          "internalType": "bool"
        }
      ],
      "anonymous": false
    },
    {
      "type": "event",
      "name": "BatchMetadataUpdate",
      "inputs": [
        {
          "name": "_fromTokenId",
          "type": "uint256",
          "indexed": false,
          "internalType": "uint256"
        },
        {
          "name": "_toTokenId",
          "type": "uint256",
          "indexed": false,
          "internalType": "uint256"
        }
      ],
      "anonymous": false
    },
    {
      "type": "event",
      "name": "MetadataUpdate",
      "inputs": [
        {
          "name": "_tokenId",
          "type": "uint256",
          "indexed": false,
          "internalType": "uint256"
        }
      ],
      "anonymous": false
    },
    {
      "type": "event",
      "name": "NFTMinted",
      "inputs": [
        {
          "name": "tokenId",
          "type": "uint256",
          "indexed": true,
          "internalType": "uint256"
        },
        {
          "name": "creator",
          "type": "address",
          "indexed": true,
          "internalType": "address"
        },
        {
          "name": "tokenURI",
          "type": "string",
          "indexed": false,
          "internalType": "string"
        }
      ],
      "anonymous": false
    },
    {
      "type": "event",
      "name": "OwnershipTransferred",
      "inputs": [
        {
          "name": "previousOwner",
          "type": "address",
          "indexed": true,
          "internalType": "address"
        },
        {
          "name": "newOwner",
          "type": "address",
          "indexed": true,
          "internalType": "address"
        }
      ],
      "anonymous": false
    },
    {
      "type": "event",
      "name": "Transfer",
      "inputs": [
        {
          "name": "from",
          "type": "address",
          "indexed": true,
          "internalType": "address"
        },
        {
          "name": "to",
          "type": "address",
          "indexed": true,
          "internalType": "address"
        },
        {
          "name": "tokenId",
          "type": "uint256",
          "indexed": true,
          "internalType": "uint256"
        }
      ],
      "anonymous": false
    }
  ],
  "bytecode": {
    "object": "0x6080604052678ac7230489e80000600a553480156200001d57600080fd5b5060405162001e2f38038062001e2f833981016040819052620000409162000190565b60405180604001604052806006815260200165105c9d13919560d21b815250604051806040016040528060048152602001631053919560e21b81525081600090816200008d919062000267565b5060016200009c828262000267565b505050620000b9620000b36200013a60201b60201c565b6200013e565b6001600160a01b038116620001145760405162461bcd60e51b815260206004820152601d60248201527f4172744e46543a20696e76616c696420746f6b656e2061646472657373000000604482015260640160405180910390fd5b600980546001600160a01b0319166001600160a01b039290921691909117905562000333565b3390565b600780546001600160a01b038381166001600160a01b0319831681179093556040519116919082907f8be0079c531659141344cd1fd0a4f28419497f9722a3daafe3b4186f6b6457e090600090a35050565b600060208284031215620001a357600080fd5b81516001600160a01b0381168114620001bb57600080fd5b9392505050565b634e487b7160e01b600052604160045260246000fd5b600181811c90821680620001ed57607f821691505b6020821081036200020e57634e487b7160e01b600052602260045260246000fd5b50919050565b601f8211156200026257600081815260208120601f850160051c810160208610156200023d5750805b601f850160051c820191505b818110156200025e5782815560010162000249565b5050505b505050565b81516001600160401b03811115620002835762000283620001c2565b6200029b81620002948454620001d8565b8462000214565b602080601f831160018114620002d35760008415620002ba5750858301515b600019600386901b1c1916600185901b1785556200025e565b600085815260208120601f198616915b828110156200030457888601518255948401946001909101908401620002e3565b5085821015620003235787850151600019600388901b60f8161c191681555b5050505050600190811b01905550565b611aec80620003436000396000f3fe608060405234801561001057600080fd5b50600436106101585760003560e01c806385ba629b116100c3578063c87b56dd1161007c578063c87b56dd146102c5578063d48e638a146102d8578063e0fd045f146102eb578063e985e9c514610314578063f2fde38b14610350578063fb37e8831461036357600080fd5b806385ba629b1461026a5780638da5cb5b1461027d57806395d89b411461028e578063a22cb46514610296578063a888f74c146102a9578063b88d4fde146102b257600080fd5b806342842e0e1161011557806342842e0e14610203578063483a5f141461021657806350182c42146102295780636352211e1461023c57806370a082311461024f578063715018a61461026257600080fd5b806301ffc9a71461015d57806306fdde0314610185578063081812fc1461019a578063095ea7b3146101c557806318160ddd146101da57806323b872dd146101f0575b600080fd5b61017061016b36600461150b565b610376565b60405190151581526020015b60405180910390f35b61018d6103a1565b60405161017c9190611578565b6101ad6101a836600461158b565b610433565b6040516001600160a01b03909116815260200161017c565b6101d86101d33660046115c0565b61045a565b005b6101e2610574565b60405190815260200161017c565b6101d86101fe3660046115ea565b610584565b6101d86102113660046115ea565b6105b5565b6009546101ad906001600160a01b031681565b6101d861023736600461158b565b6105d0565b6101ad61024a36600461158b565b6105dd565b6101e261025d366004611626565b61063d565b6101d86106c3565b6101d8610278366004611626565b6106d7565b6007546001600160a01b03166101ad565b61018d610757565b6101d86102a4366004611641565b610766565b6101e2600a5481565b6101d86102c0366004611709565b610775565b61018d6102d336600461158b565b6107ad565b6101ad6102e636600461158b565b6108bd565b6101ad6102f936600461158b565b600b602052600090815260409020546001600160a01b031681565b610170610322366004611785565b6001600160a01b03918216600090815260056020908152604080832093909416825291909152205460ff1690565b6101d861035e366004611626565b610949565b6101e26103713660046117b8565b6109c2565b60006001600160e01b03198216632483248360e11b148061039b575061039b82610ac6565b92915050565b6060600080546103b090611801565b80601f01602080910402602001604051908101604052809291908181526020018280546103dc90611801565b80156104295780601f106103fe57610100808354040283529160200191610429565b820191906000526020600020905b81548152906001019060200180831161040c57829003601f168201915b5050505050905090565b600061043e82610b16565b506000908152600460205260409020546001600160a01b031690565b6000610465826105dd565b9050806001600160a01b0316836001600160a01b0316036104d75760405162461bcd60e51b815260206004820152602160248201527f4552433732313a20617070726f76616c20746f2063757272656e74206f776e656044820152603960f91b60648201526084015b60405180910390fd5b336001600160a01b03821614806104f357506104f38133610322565b6105655760405162461bcd60e51b815260206004820152603d60248201527f4552433732313a20617070726f76652063616c6c6572206973206e6f7420746f60448201527f6b656e206f776e6572206f7220617070726f76656420666f7220616c6c00000060648201526084016104ce565b61056f8383610b75565b505050565b600061057f60085490565b905090565b61058e3382610be3565b6105aa5760405162461bcd60e51b81526004016104ce9061183b565b61056f838383610c61565b61056f83838360405180602001604052806000815250610775565b6105d8610dc5565b600a55565b6000818152600260205260408120546001600160a01b03168061039b5760405162461bcd60e51b8152602060048201526018602482015277115490cdcc8c4e881a5b9d985b1a59081d1bdad95b88125160421b60448201526064016104ce565b60006001600160a01b0382166106a75760405162461bcd60e51b815260206004820152602960248201527f4552433732313a2061646472657373207a65726f206973206e6f7420612076616044820152683634b21037bbb732b960b91b60648201526084016104ce565b506001600160a01b031660009081526003602052604090205490565b6106cb610dc5565b6106d56000610e1f565b565b6106df610dc5565b6001600160a01b0381166107355760405162461bcd60e51b815260206004820152601d60248201527f4172744e46543a20696e76616c696420746f6b656e206164647265737300000060448201526064016104ce565b600980546001600160a01b0319166001600160a01b0392909216919091179055565b6060600180546103b090611801565b610771338383610e71565b5050565b61077f3383610be3565b61079b5760405162461bcd60e51b81526004016104ce9061183b565b6107a784848484610f3f565b50505050565b60606107b882610b16565b600082815260066020526040812080546107d190611801565b80601f01602080910402602001604051908101604052809291908181526020018280546107fd90611801565b801561084a5780601f1061081f5761010080835404028352916020019161084a565b820191906000526020600020905b81548152906001019060200180831161082d57829003601f168201915b50505050509050600061086860408051602081019091526000815290565b9050805160000361087a575092915050565b8151156108ac578082604051602001610894929190611888565b60405160208183030381529060405292505050919050565b6108b584610f72565b949350505050565b6000818152600260205260408120546001600160a01b031661092d5760405162461bcd60e51b815260206004820152602360248201527f4172744e46543a20717565727920666f72206e6f6e6578697374656e7420746f60448201526235b2b760e91b60648201526084016104ce565b506000908152600b60205260409020546001600160a01b031690565b610951610dc5565b6001600160a01b0381166109b65760405162461bcd60e51b815260206004820152602660248201527f4f776e61626c653a206e6577206f776e657220697320746865207a65726f206160448201526564647265737360d01b60648201526084016104ce565b6109bf81610e1f565b50565b6000806109ce60085490565b90506109de600880546001019055565b6109e83382610fe6565b6109f28184611000565b6000818152600b60205260409081902080546001600160a01b03191633908117909155600954600a549251630773fdb960e01b8152600481019290925260248201929092526001600160a01b0390911690630773fdb990604401600060405180830381600087803b158015610a6657600080fd5b505af1158015610a7a573d6000803e3d6000fd5b50505050336001600160a01b0316817f06becd955c918828f6e985541acbf49cc842c9e9bd569fffc7698e721ef1357585604051610ab89190611578565b60405180910390a392915050565b60006001600160e01b031982166380ac58cd60e01b1480610af757506001600160e01b03198216635b5e139f60e01b145b8061039b57506301ffc9a760e01b6001600160e01b031983161461039b565b6000818152600260205260409020546001600160a01b03166109bf5760405162461bcd60e51b8152602060048201526018602482015277115490cdcc8c4e881a5b9d985b1a59081d1bdad95b88125160421b60448201526064016104ce565b600081815260046020526040902080546001600160a01b0319166001600160a01b0384169081179091558190610baa826105dd565b6001600160a01b03167f8c5be1e5ebec7d5bd14f71427d1e84f3dd0314c0f7b2291e5b200ac8c7c3b92560405160405180910390a45050565b600080610bef836105dd565b9050806001600160a01b0316846001600160a01b03161480610c3657506001600160a01b0380821660009081526005602090815260408083209388168352929052205460ff165b806108b55750836001600160a01b0316610c4f84610433565b6001600160a01b031614949350505050565b826001600160a01b0316610c74826105dd565b6001600160a01b031614610c9a5760405162461bcd60e51b81526004016104ce906118b7565b6001600160a01b038216610cfc5760405162461bcd60e51b8152602060048201526024808201527f4552433732313a207472616e7366657220746f20746865207a65726f206164646044820152637265737360e01b60648201526084016104ce565b826001600160a01b0316610d0f826105dd565b6001600160a01b031614610d355760405162461bcd60e51b81526004016104ce906118b7565b600081815260046020908152604080832080546001600160a01b03199081169091556001600160a01b0387811680865260038552838620805460001901905590871680865283862080546001019055868652600290945282852080549092168417909155905184937fddf252ad1be2c89b69c2b068fc378daa952ba7f163c4a11628f55a4df523b3ef91a4505050565b6007546001600160a01b031633146106d55760405162461bcd60e51b815260206004820181905260248201527f4f776e61626c653a2063616c6c6572206973206e6f7420746865206f776e657260448201526064016104ce565b600780546001600160a01b038381166001600160a01b0319831681179093556040519116919082907f8be0079c531659141344cd1fd0a4f28419497f9722a3daafe3b4186f6b6457e090600090a35050565b816001600160a01b0316836001600160a01b031603610ed25760405162461bcd60e51b815260206004820152601960248201527f4552433732313a20617070726f766520746f2063616c6c65720000000000000060448201526064016104ce565b6001600160a01b03838116600081815260056020908152604080832094871680845294825291829020805460ff191686151590811790915591519182527f17307eab39ab6107e8899845ad3d59bd9653f200f220920489ca2b5937696c31910160405180910390a3505050565b610f4a848484610c61565b610f56848484846110cb565b6107a75760405162461bcd60e51b81526004016104ce906118fc565b6060610f7d82610b16565b6000610f9460408051602081019091526000815290565b90506000815111610fb45760405180602001604052806000815250610fdf565b80610fbe846111cc565b604051602001610fcf929190611888565b6040516020818303038152906040525b9392505050565b61077182826040518060200160405280600081525061125f565b6000828152600260205260409020546001600160a01b031661107b5760405162461bcd60e51b815260206004820152602e60248201527f45524337323155524953746f726167653a2055524920736574206f66206e6f6e60448201526d32bc34b9ba32b73a103a37b5b2b760911b60648201526084016104ce565b6000828152600660205260409020611093828261199c565b506040518281527ff8e1a15aba9398e019f0b49df1a4fde98ee17ae345cb5f6b5e2c27f5033e8ce79060200160405180910390a15050565b60006001600160a01b0384163b156111c157604051630a85bd0160e11b81526001600160a01b0385169063150b7a029061110f903390899088908890600401611a5c565b6020604051808303816000875af192505050801561114a575060408051601f3d908101601f1916820190925261114791810190611a99565b60015b6111a7573d808015611178576040519150601f19603f3d011682016040523d82523d6000602084013e61117d565b606091505b50805160000361119f5760405162461bcd60e51b81526004016104ce906118fc565b805181602001fd5b6001600160e01b031916630a85bd0160e11b1490506108b5565b506001949350505050565b606060006111d983611292565b600101905060008167ffffffffffffffff8111156111f9576111f961167d565b6040519080825280601f01601f191660200182016040528015611223576020820181803683370190505b5090508181016020015b600019016f181899199a1a9b1b9c1cb0b131b232b360811b600a86061a8153600a850494508461122d57509392505050565b611269838361136a565b61127660008484846110cb565b61056f5760405162461bcd60e51b81526004016104ce906118fc565b60008072184f03e93ff9f4daa797ed6e38ed64bf6a1f0160401b83106112d15772184f03e93ff9f4daa797ed6e38ed64bf6a1f0160401b830492506040015b6d04ee2d6d415b85acef810000000083106112fd576d04ee2d6d415b85acef8100000000830492506020015b662386f26fc10000831061131b57662386f26fc10000830492506010015b6305f5e1008310611333576305f5e100830492506008015b612710831061134757612710830492506004015b60648310611359576064830492506002015b600a831061039b5760010192915050565b6001600160a01b0382166113c05760405162461bcd60e51b815260206004820181905260248201527f4552433732313a206d696e7420746f20746865207a65726f206164647265737360448201526064016104ce565b6000818152600260205260409020546001600160a01b0316156114255760405162461bcd60e51b815260206004820152601c60248201527f4552433732313a20746f6b656e20616c7265616479206d696e7465640000000060448201526064016104ce565b6000818152600260205260409020546001600160a01b03161561148a5760405162461bcd60e51b815260206004820152601c60248201527f4552433732313a20746f6b656e20616c7265616479206d696e7465640000000060448201526064016104ce565b6001600160a01b038216600081815260036020908152604080832080546001019055848352600290915280822080546001600160a01b0319168417905551839291907fddf252ad1be2c89b69c2b068fc378daa952ba7f163c4a11628f55a4df523b3ef908290a45050565b6001600160e01b0319811681146109bf57600080fd5b60006020828403121561151d57600080fd5b8135610fdf816114f5565b60005b8381101561154357818101518382015260200161152b565b50506000910152565b60008151808452611564816020860160208601611528565b601f01601f19169290920160200192915050565b602081526000610fdf602083018461154c565b60006020828403121561159d57600080fd5b5035919050565b80356001600160a01b03811681146115bb57600080fd5b919050565b600080604083850312156115d357600080fd5b6115dc836115a4565b946020939093013593505050565b6000806000606084860312156115ff57600080fd5b611608846115a4565b9250611616602085016115a4565b9150604084013590509250925092565b60006020828403121561163857600080fd5b610fdf826115a4565b6000806040838503121561165457600080fd5b61165d836115a4565b91506020830135801515811461167257600080fd5b809150509250929050565b634e487b7160e01b600052604160045260246000fd5b600067ffffffffffffffff808411156116ae576116ae61167d565b604051601f8501601f19908116603f011681019082821181831017156116d6576116d661167d565b816040528093508581528686860111156116ef57600080fd5b858560208301376000602087830101525050509392505050565b6000806000806080858703121561171f57600080fd5b611728856115a4565b9350611736602086016115a4565b925060408501359150606085013567ffffffffffffffff81111561175957600080fd5b8501601f8101871361176a57600080fd5b61177987823560208401611693565b91505092959194509250565b6000806040838503121561179857600080fd5b6117a1836115a4565b91506117af602084016115a4565b90509250929050565b6000602082840312156117ca57600080fd5b813567ffffffffffffffff8111156117e157600080fd5b8201601f810184136117f257600080fd5b6108b584823560208401611693565b600181811c9082168061181557607f821691505b60208210810361183557634e487b7160e01b600052602260045260246000fd5b50919050565b6020808252602d908201527f4552433732313a2063616c6c6572206973206e6f7420746f6b656e206f776e6560408201526c1c881bdc88185c1c1c9bdd9959609a1b606082015260800190565b6000835161189a818460208801611528565b8351908301906118ae818360208801611528565b01949350505050565b60208082526025908201527f4552433732313a207472616e736665722066726f6d20696e636f72726563742060408201526437bbb732b960d91b606082015260800190565b60208082526032908201527f4552433732313a207472616e7366657220746f206e6f6e20455243373231526560408201527131b2b4bb32b91034b6b83632b6b2b73a32b960711b606082015260800190565b601f82111561056f57600081815260208120601f850160051c810160208610156119755750805b601f850160051c820191505b8181101561199457828155600101611981565b505050505050565b815167ffffffffffffffff8111156119b6576119b661167d565b6119ca816119c48454611801565b8461194e565b602080601f8311600181146119ff57600084156119e75750858301515b600019600386901b1c1916600185901b178555611994565b600085815260208120601f198616915b82811015611a2e57888601518255948401946001909101908401611a0f565b5085821015611a4c5787850151600019600388901b60f8161c191681555b5050505050600190811b01905550565b6001600160a01b0385811682528416602082015260408101839052608060608201819052600090611a8f9083018461154c565b9695505050505050565b600060208284031215611aab57600080fd5b8151610fdf816114f556fea2646970667358221220ff76b9665c3d96cd3e662d6b49b83aa2db454815031835b574c4c0a8c159e15964736f6c63430008140033",
    "linkReferences": {}
  },
  "methodIdentifiers": {
    "approve(address,uint256)": "095ea7b3",
    "balanceOf(address)": "70a08231",
    "creatorRewardAmount()": "a888f74c",
    "creatorToken()": "483a5f14",
    "getApproved(uint256)": "081812fc",
    "getCreator(uint256)": "d48e638a",
    "isApprovedForAll(address,address)": "e985e9c5",
    "mintNFT(string)": "fb37e883",
    "name()": "06fdde03",
    "owner()": "8da5cb5b",
    "ownerOf(uint256)": "6352211e",
    "renounceOwnership()": "715018a6",
    "safeTransferFrom(address,address,uint256)": "42842e0e",
    "safeTransferFrom(address,address,uint256,bytes)": "b88d4fde",
    "setApprovalForAll(address,bool)": "a22cb465",
    "setCreatorRewardAmount(uint256)": "50182c42",
    "setCreatorToken(address)": "85ba629b",
    "supportsInterface(bytes4)": "01ffc9a7",
    "symbol()": "95d89b41",
    "tokenCreators(uint256)": "e0fd045f",
    "tokenURI(uint256)": "c87b56dd",
    "totalSupply()": "18160ddd",
    "transferFrom(address,address,uint256)": "23b872dd",
    "transferOwnership(address)": "f2fde38b"
  },
  "id": 39
}