{
  "abi": [
    {
      "type": "constructor",
      "inputs": [],
      "stateMutability": "nonpayable"
    },
    {
      "type": "function",
      "name": "MAX_SUPPLY",
      "inputs": [],
      "outputs": [
        {
          "name": "",
          "type": "uint256",
          "internalType": "uint256"
        }
      ],
      "stateMutability": "view"
    },
    {
      "type": "function",
      "name": "allowance",
      "inputs": [
        {
          "name": "owner",
          "type": "address",
          "internalType": "address"
        },
        {
          "name": "spender",
          "type": "address",
          "internalType": "address"
        }
      ],
      "outputs": [
        {
          "name": "",
          "type": "uint256",
          "internalType": "uint256"
        }
      ],
      "stateMutability": "view"
    },
    {
      "type": "function",
      "name": "approve",
      "inputs": [
        {
          "name": "spender",
          "type": "address",
          "internalType": "address"
        },
        {
          "name": "amount",
          "type": "uint256",
          "internalType": "uint256"
        }
      ],
      "outputs": [
        {
          "name": "",
          "type": "bool",
          "internalType": "bool"
        }
      ],
      "stateMutability": "nonpayable"
    },
    {
      "type": "function",
      "name": "artNFTContract",
      "inputs": [],
      "outputs": [
        {
          "name": "",
          "type": "address",
          "internalType": "address"
        }
      ],
      "stateMutability": "view"
    },
    {
      "type": "function",
      "name": "balanceOf",
      "inputs": [
        {
          "name": "account",
          "type": "address",
          "internalType": "address"
        }
      ],
      "outputs": [
        {
          "name": "",
          "type": "uint256",
          "internalType": "uint256"
        }
      ],
      "stateMutability": "view"
    },
    {
      "type": "function",
      "name": "decimals",
      "inputs": [],
      "outputs": [
        {
          "name": "",
          "type": "uint8",
          "internalType": "uint8"
        }
      ],
      "stateMutability": "view"
    },
    {
      "type": "function",
      "name": "decreaseAllowance",
      "inputs": [
        {
          "name": "spender",
          "type": "address",
          "internalType": "address"
        },
        {
          "name": "subtractedValue",
          "type": "uint256",
          "internalType": "uint256"
        }
      ],
      "outputs": [
        {
          "name": "",
          "type": "bool",
          "internalType": "bool"
        }
      ],
      "stateMutability": "nonpayable"
    },
    {
      "type": "function",
      "name": "increaseAllowance",
      "inputs": [
        {
          "name": "spender",
          "type": "address",
          "internalType": "address"
        },
        {
          "name": "addedValue",
          "type": "uint256",
          "internalType": "uint256"
        }
      ],
      "outputs": [
        {
          "name": "",
          "type": "bool",
          "internalType": "bool"
        }
      ],
      "stateMutability": "nonpayable"
    },
    {
      "type": "function",
      "name": "name",
      "inputs": [],
      "outputs": [
        {
          "name": "",
          "type": "string",
          "internalType": "string"
        }
      ],
      "stateMutability": "view"
    },
    {
      "type": "function",
      "name": "owner",
      "inputs": [],
      "outputs": [
        {
          "name": "",
          "type": "address",
          "internalType": "address"
        }
      ],
      "stateMutability": "view"
    },
    {
      "type": "function",
      "name": "remainingSupply",
      "inputs": [],
      "outputs": [
        {
          "name": "",
          "type": "uint256",
          "internalType": "uint256"
        }
      ],
      "stateMutability": "view"
    },
    {
      "type": "function",
      "name": "renounceOwnership",
      "inputs": [],
      "outputs": [],
      "stateMutability": "nonpayable"
    },
    {
      "type": "function",
      "name": "rewardCreator",
      "inputs": [
        {
          "name": "to",
          "type": "address",
          "internalType": "address"
        },
        {
          "name": "amount",
          "type": "uint256",
          "internalType": "uint256"
        }
      ],
      "outputs": [],
      "stateMutability": "nonpayable"
    },
    {
      "type": "function",
      "name": "setArtNFTContract",
      "inputs": [
        {
          "name": "_artNFTContract",
          "type": "address",
          "internalType": "address"
        }
      ],
      "outputs": [],
      "stateMutability": "nonpayable"
    },
    {
      "type": "function",
      "name": "symbol",
      "inputs": [],
      "outputs": [
        {
          "name": "",
          "type": "string",
          "internalType": "string"
        }
      ],
      "stateMutability": "view"
    },
    {
      "type": "function",
      "name": "totalMinted",
      "inputs": [],
      "outputs": [
        {
          "name": "",
          "type": "uint256",
          "internalType": "uint256"
        }
      ],
      "stateMutability": "view"
    },
    {
      "type": "function",
      "name": "totalSupply",
      "inputs": [],
      "outputs": [
        {
          "name": "",
          "type": "uint256",
          "internalType": "uint256"
        }
      ],
      "stateMutability": "view"
    },
    {
      "type": "function",
      "name": "transfer",
      "inputs": [
        {
          "name": "to",
          "type": "address",
          "internalType": "address"
        },
        {
          "name": "amount",
          "type": "uint256",
          "internalType": "uint256"
        }
      ],
      "outputs": [
        {
          "name": "",
          "type": "bool",
          "internalType": "bool"
        }
      ],
      "stateMutability": "nonpayable"
    },
    {
      "type": "function",
      "name": "transferFrom",
      "inputs": [
        {
          "name": "from",
          "type": "address",
          "internalType": "address"
        },
        {
          "name": "to",
          "type": "address",
          "internalType": "address"
        },
        {
          "name": "amount",
          "type": "uint256",
          "internalType": "uint256"
        }
      ],
      "outputs": [
        {
          "name": "",
          "type": "bool",
          "internalType": "bool"
        }
      ],
      "stateMutability": "nonpayable"
    },
    {
      "type": "function",
      "name": "transferOwnership",
      "inputs": [
        {
          "name": "newOwner",
          "type": "address",
          "internalType": "address"
        }
      ],
      "outputs": [],
      "stateMutability": "nonpayable"
    },
    {
      "type": "event",
      "name": "Approval",
      "inputs": [
        {
          "name": "owner",
          "type": "address",
          "indexed": true,
          "internalType": "address"
        },
        {
          "name": "spender",
          "type": "address",
          "indexed": true,
          "internalType": "address"
        },
        {
          "name": "value",
          "type": "uint256",
          "indexed": false,
          "internalType": "uint256"
        }
      ],
      "anonymous": false
    },
    {
      "type": "event",
      "name": "ArtNFTContractUpdated",
      "inputs": [
        {
          "name": "previousContract",
          "type": "address",
          "indexed": true,
          "internalType": "address"
        },
        {
          "name": "newContract",
          "type": "address",
          "indexed": true,
          "internalType": "address"
        }
      ],
      "anonymous": false
    },
    {
      "type": "event",
      "name": "OwnershipTransferred",
      "inputs": [
        {
          "name": "previousOwner",
          "type": "address",
          "indexed": true,
          "internalType": "address"
        },
        {
          "name": "newOwner",
          "type": "address",
          "indexed": true,
          "internalType": "address"
        }
      ],
      "anonymous": false
    },
    {
      "type": "event",
      "name": "Transfer",
      "inputs": [
        {
          "name": "from",
          "type": "address",
          "indexed": true,
          "internalType": "address"
        },
        {
          "name": "to",
          "type": "address",
          "indexed": true,
          "internalType": "address"
        },
        {
          "name": "value",
          "type": "uint256",
          "indexed": false,
          "internalType": "uint256"
        }
      ],
      "anonymous": false
    }
  ],
  "bytecode": {
    "object": "0x60806040523480156200001157600080fd5b506040518060400160405280600c81526020016b21b932b0ba37b92a37b5b2b760a11b8152506040518060400160405280600681526020016543524541544560d01b815250816003908162000067919062000194565b50600462000076828262000194565b505050620000936200008d6200009960201b60201c565b6200009d565b62000260565b3390565b600580546001600160a01b038381166001600160a01b0319831681179093556040519116919082907f8be0079c531659141344cd1fd0a4f28419497f9722a3daafe3b4186f6b6457e090600090a35050565b634e487b7160e01b600052604160045260246000fd5b600181811c908216806200011a57607f821691505b6020821081036200013b57634e487b7160e01b600052602260045260246000fd5b50919050565b601f8211156200018f57600081815260208120601f850160051c810160208610156200016a5750805b601f850160051c820191505b818110156200018b5782815560010162000176565b5050505b505050565b81516001600160401b03811115620001b057620001b0620000ef565b620001c881620001c1845462000105565b8462000141565b602080601f831160018114620002005760008415620001e75750858301515b600019600386901b1c1916600185901b1785556200018b565b600085815260208120601f198616915b82811015620002315788860151825594840194600190910190840162000210565b5085821015620002505787850151600019600388901b60f8161c191681555b5050505050600190811b01905550565b610dc680620002706000396000f3fe608060405234801561001057600080fd5b506004361061012c5760003560e01c806370a08231116100ad578063a457c2d711610071578063a457c2d71461026f578063a9059cbb14610282578063da0239a614610295578063dd62ed3e1461029d578063f2fde38b146102b057600080fd5b806370a082311461021d578063715018a6146102465780638da5cb5b1461024e57806395d89b411461025f578063a2309ff81461026757600080fd5b806318160ddd116100f457806318160ddd146101c557806323b872dd146101d7578063313ce567146101ea57806332cb6b0c146101f9578063395093511461020a57600080fd5b8063052c862c1461013157806306fdde03146101465780630773fdb9146101645780630812ec8c14610177578063095ea7b3146101a2575b600080fd5b61014461013f366004610c11565b6102c3565b005b61014e610387565b60405161015b9190610c33565b60405180910390f35b610144610172366004610c81565b610419565b60065461018a906001600160a01b031681565b6040516001600160a01b03909116815260200161015b565b6101b56101b0366004610c81565b610579565b604051901515815260200161015b565b6002545b60405190815260200161015b565b6101b56101e5366004610cab565b610593565b6040516012815260200161015b565b6101c969d3c21bcecceda100000081565b6101b5610218366004610c81565b6105b7565b6101c961022b366004610c11565b6001600160a01b031660009081526020819052604090205490565b6101446105d9565b6005546001600160a01b031661018a565b61014e6105ed565b6007546101c9565b6101b561027d366004610c81565b6105fc565b6101b5610290366004610c81565b610677565b6101c9610685565b6101c96102ab366004610ce7565b6106a4565b6101446102be366004610c11565b6106cf565b6102cb610748565b6001600160a01b0381166103355760405162461bcd60e51b815260206004820152602660248201527f43726561746f72546f6b656e3a20696e76616c696420636f6e7472616374206160448201526564647265737360d01b60648201526084015b60405180910390fd5b600680546001600160a01b038381166001600160a01b0319831681179093556040519116919082907f3951846cce4943a8e05b7b7846b810ca8a3cb583db323fd83ca26dd466d802d590600090a35050565b60606003805461039690610d1a565b80601f01602080910402602001604051908101604052809291908181526020018280546103c290610d1a565b801561040f5780601f106103e45761010080835404028352916020019161040f565b820191906000526020600020905b8154815290600101906020018083116103f257829003601f168201915b5050505050905090565b6006546001600160a01b0316331461048b5760405162461bcd60e51b815260206004820152602f60248201527f43726561746f72546f6b656e3a2063616c6c6572206973206e6f74207468652060448201526e105c9d1391950818dbdb9d1c9858dd608a1b606482015260840161032c565b6001600160a01b0382166104ec5760405162461bcd60e51b815260206004820152602260248201527f43726561746f72546f6b656e3a206d696e7420746f207a65726f206164647265604482015261737360f01b606482015260840161032c565b69d3c21bcecceda1000000816007546105059190610d6a565b11156105535760405162461bcd60e51b815260206004820181905260248201527f43726561746f72546f6b656e3a2065786365656473206d617820737570706c79604482015260640161032c565b80600760008282546105659190610d6a565b90915550610575905082826107a2565b5050565b600033610587818585610861565b60019150505b92915050565b6000336105a1858285610985565b6105ac8585856109ff565b506001949350505050565b6000336105878185856105ca83836106a4565b6105d49190610d6a565b610861565b6105e1610748565b6105eb6000610ba3565b565b60606004805461039690610d1a565b6000338161060a82866106a4565b90508381101561066a5760405162461bcd60e51b815260206004820152602560248201527f45524332303a2064656372656173656420616c6c6f77616e63652062656c6f77604482015264207a65726f60d81b606482015260840161032c565b6105ac8286868403610861565b6000336105878185856109ff565b600060075469d3c21bcecceda100000061069f9190610d7d565b905090565b6001600160a01b03918216600090815260016020908152604080832093909416825291909152205490565b6106d7610748565b6001600160a01b03811661073c5760405162461bcd60e51b815260206004820152602660248201527f4f776e61626c653a206e6577206f776e657220697320746865207a65726f206160448201526564647265737360d01b606482015260840161032c565b61074581610ba3565b50565b6005546001600160a01b031633146105eb5760405162461bcd60e51b815260206004820181905260248201527f4f776e61626c653a2063616c6c6572206973206e6f7420746865206f776e6572604482015260640161032c565b6001600160a01b0382166107f85760405162461bcd60e51b815260206004820152601f60248201527f45524332303a206d696e7420746f20746865207a65726f206164647265737300604482015260640161032c565b806002600082825461080a9190610d6a565b90915550506001600160a01b038216600081815260208181526040808320805486019055518481527fddf252ad1be2c89b69c2b068fc378daa952ba7f163c4a11628f55a4df523b3ef910160405180910390a35050565b6001600160a01b0383166108c35760405162461bcd60e51b8152602060048201526024808201527f45524332303a20617070726f76652066726f6d20746865207a65726f206164646044820152637265737360e01b606482015260840161032c565b6001600160a01b0382166109245760405162461bcd60e51b815260206004820152602260248201527f45524332303a20617070726f766520746f20746865207a65726f206164647265604482015261737360f01b606482015260840161032c565b6001600160a01b0383811660008181526001602090815260408083209487168084529482529182902085905590518481527f8c5be1e5ebec7d5bd14f71427d1e84f3dd0314c0f7b2291e5b200ac8c7c3b925910160405180910390a3505050565b600061099184846106a4565b905060001981146109f957818110156109ec5760405162461bcd60e51b815260206004820152601d60248201527f45524332303a20696e73756666696369656e7420616c6c6f77616e6365000000604482015260640161032c565b6109f98484848403610861565b50505050565b6001600160a01b038316610a635760405162461bcd60e51b815260206004820152602560248201527f45524332303a207472616e736665722066726f6d20746865207a65726f206164604482015264647265737360d81b606482015260840161032c565b6001600160a01b038216610ac55760405162461bcd60e51b815260206004820152602360248201527f45524332303a207472616e7366657220746f20746865207a65726f206164647260448201526265737360e81b606482015260840161032c565b6001600160a01b03831660009081526020819052604090205481811015610b3d5760405162461bcd60e51b815260206004820152602660248201527f45524332303a207472616e7366657220616d6f756e7420657863656564732062604482015265616c616e636560d01b606482015260840161032c565b6001600160a01b03848116600081815260208181526040808320878703905593871680835291849020805487019055925185815290927fddf252ad1be2c89b69c2b068fc378daa952ba7f163c4a11628f55a4df523b3ef910160405180910390a36109f9565b600580546001600160a01b038381166001600160a01b0319831681179093556040519116919082907f8be0079c531659141344cd1fd0a4f28419497f9722a3daafe3b4186f6b6457e090600090a35050565b80356001600160a01b0381168114610c0c57600080fd5b919050565b600060208284031215610c2357600080fd5b610c2c82610bf5565b9392505050565b600060208083528351808285015260005b81811015610c6057858101830151858201604001528201610c44565b506000604082860101526040601f19601f8301168501019250505092915050565b60008060408385031215610c9457600080fd5b610c9d83610bf5565b946020939093013593505050565b600080600060608486031215610cc057600080fd5b610cc984610bf5565b9250610cd760208501610bf5565b9150604084013590509250925092565b60008060408385031215610cfa57600080fd5b610d0383610bf5565b9150610d1160208401610bf5565b90509250929050565b600181811c90821680610d2e57607f821691505b602082108103610d4e57634e487b7160e01b600052602260045260246000fd5b50919050565b634e487b7160e01b600052601160045260246000fd5b8082018082111561058d5761058d610d54565b8181038181111561058d5761058d610d5456fea2646970667358221220f113871065d90cb8fdacc5d9eafb804b75a318d441c0c1def3431f7b5e9ac46964736f6c63430008140033",
    "linkReferences": {}
  },
  "methodIdentifiers": {
    "MAX_SUPPLY()": "32cb6b0c",
    "allowance(address,address)": "dd62ed3e",
    "approve(address,uint256)": "095ea7b3",
    "artNFTContract()": "0812ec8c",
    "balanceOf(address)": "70a08231",
    "decimals()": "313ce567",
    "decreaseAllowance(address,uint256)": "a457c2d7",
    "increaseAllowance(address,uint256)": "39509351",
    "name()": "06fdde03",
    "owner()": "8da5cb5b",
    "remainingSupply()": "da0239a6",
    "renounceOwnership()": "715018a6",
    "rewardCreator(address,uint256)": "0773fdb9",
    "setArtNFTContract(address)": "052c862c",
    "symbol()": "95d89b41",
    "totalMinted()": "a2309ff8",
    "totalSupply()": "18160ddd",
    "transfer(address,uint256)": "a9059cbb",
    "transferFrom(address,address,uint256)": "23b872dd",
    "transferOwnership(address)": "f2fde38b"
  },
  "id": 40
}